:1000000014C02EC02DC02CC02BC02AC029C028C0AF
:1000100027C026C025C024C023C022C021C020C0C4
:100020001FC01EC01DC01CC01BC011241FBECFE5B9
:10003000D2E0DEBFCDBF10E0A0E6B0E0EAE8F0E03D
:1000400002C005900D92A036B107D9F710E0A0E6E6
:10005000B0E001C01D92A036B107E1F702D014C094
:10006000CFCF1ABA8FEF8BBB80EF81BB12BA20E4DF
:1000700090E180E5C89B02C022BBFCCFC99B02C0B7
:0A00800092BBF8CF82BBF6CFFFCF92
:00000001FF
