:1000000014C02EC02DC02CC02BC02AC029C028C0AF
:1000100027C026C025C024C023C022C021C020C0C4
:100020001FC01EC01DC01CC01BC011241FBECFE5B9
:10003000D2E0DEBFCDBF10E0A0E6B0E0E4E4F1E046
:1000400002C005900D92A036B107D9F710E0A0E6E6
:10005000B0E001C01D92A436B107E1F744D071C0F1
:10006000CFCF109263001092620020E030E040E0B9
:1000700050E0000000000000000000000000000050
:10008000000000000000000000004F5F5F4F63E0D1
:100090004132560771F72F5F3F4F8217930738F7AA
:1000A000309363002093620050936100409360009E
:1000B0000895109263001092620020E030E000008A
:1000C0000000000000000000000000000000000030
:1000D00000002F5F3F4F8217930788F7309363002C
:1000E0002093620008951F9315BA88E084BB18E03E
:1000F00015BB8CE291E0B5DF15BA82E390E0B1DF89
:1001000015BB8CE291E0ADDF15BA82E390E0A9DF88
:1001100015BB84E690E0A5DF15BA8EE190E0A1DF83
:1001200015BB84E690E09DDF15BA8EE190E099DF83
:1001300015BB84EF91E095DF15BA82E390E091DF83
:04014000D6CFFFCF48
:00000001FF
