:1000000014C02EC02DC02CC02BC02AC06CC028C06C
:1000100027C026C025C024C023C022C021C020C0C4
:100020001FC01EC01DC01CC01BC011241FBECFE5B9
:10003000D2E0DEBFCDBF10E0A0E6B0E0EAE7F2E03C
:1000400002C005900D92A036B107D9F710E0A0E6E6
:10005000B0E001C01D92AD36B107E1F7D4D00CC1BC
:10006000CFCF10926C0010926B0020E030E040E0A7
:1000700050E0000000000000000000000000000050
:10008000000000000000000000004F5F5F4F63E0D1
:100090004132560771F72F5F3F4F8217930738F7AA
:1000A00030936C0020936B0050936900409368007C
:1000B000089510926C0010926B0020E030E0000078
:1000C0000000000000000000000000000000000030
:1000D00000002F5F3F4F8217930788F730936C0023
:1000E00020936B0008951F920F920FB60F92112468
:1000F0002F933F934F935F936F937F938F939F9330
:10010000AF93BF93EF93FF9380916700E82FFF2792
:10011000E05AFF4F9081892B8BBB81E090E0A1DFFB
:1001200080916700863018F01092670003C08F5FDF
:1001300080936700FF91EF91BF91AF919F918F9155
:100140007F916F915F914F913F912F910F900FBED3
:100150000F901F90189580E78093600098E8909327
:100160006100909362009093630088EF8093640035
:100170009093650090936600089590EF90936000CF
:1001800088E880936100809362009093630080937D
:1001900064008093650090936600089520E72093A3
:1001A000600098E89093610080E8809362008093FB
:1001B0006300809364009093650020936600089527
:1001C00020EE2093600090E99093610088E880938E
:1001D0006200809363008093640090936500209395
:1001E0006600089598EF9093600080E88093610026
:1001F0008093620090936300809364008093650015
:100200009093660008951092670083E08FBD8AE1A5
:100210008EBD1DBC1CBC87E08BBD8FEF8ABD88E105
:1002200089BF78948FEF8ABB1BBA84E680936A00FB
:1002300088EF8093600080936100809362008093D8
:10024000630080936400809365008093660083DF81
:100250008AE090E02EDF91DF8AE090E02ADF9EDFE7
:100260008AE090E026DFACDF8AE090E022DFBADFB0
:0A0270008AE090E01EDFEBCFFFCF25
:00000001FF
