:1000000014C02EC02DC02CC02BC02AC06CC028C06C
:1000100027C026C025C024C023C022C021C020C0C4
:100020001FC01EC01DC01CC01BC011241FBECFE5B9
:10003000D2E0DEBFCDBF10E0A0E6B0E0EAEFF3E033
:1000400002C005900D92A036B107D9F710E0A0E6E6
:10005000B0E001C01D92AD36B107E1F773D1CCC15C
:10006000CFCF10926C0010926B0020E030E040E0A7
:1000700050E0000000000000000000000000000050
:10008000000000000000000000004F5F5F4F63E0D1
:100090004132560771F72F5F3F4F8217930738F7AA
:1000A00030936C0020936B0050936900409368007C
:1000B000089510926C0010926B0020E030E0000078
:1000C0000000000000000000000000000000000030
:1000D00000002F5F3F4F8217930788F730936C0023
:1000E00020936B0008951F920F920FB60F92112468
:1000F0002F933F934F935F936F937F938F939F9330
:10010000AF93BF93EF93FF9380916700E82FFF2792
:10011000E05AFF4F9081892B8BBB81E090E0A1DFFB
:1001200080916700863018F01092670003C08F5FDF
:1001300080936700FF91EF91BF91AF919F918F9155
:100140007F916F915F914F913F912F910F900FBED3
:100150000F901F90189588E88093600080E7809347
:10016000610080936200809363001092640080932A
:10017000650080936600089598E09093600080E7A2
:100180008093610080936200909363008093640089
:100190008093650090936600089528E8209360009E
:1001A00090E79093610088E78093620080936300FA
:1001B000809364009093650020936600089528E181
:1001C0002093600098E69093610080E7809362003E
:1001D0008093630080936400909365002093660091
:1001E00008951092600088E7809361008093620018
:1001F0001092630080936400809365001092660003
:1002000008951092600098E79093610090936200C7
:1002100088E08093630090936400909365009093CE
:100220006600089588E88093600090E790936100ED
:1002300088E78093620080E6809363009093640077
:100240009093650080E880936600089580E780932E
:10025000600080936100809362001092630080933D
:1002600064008093650080936600089598E89093F9
:10027000600088ED8093610080936200809363004A
:10028000809364008093650090936600089580ECED
:100290008093600088EE8093610080936200809379
:1002A00063008093640088E68093650088E980930A
:1002B0006600089530E73093600028E620936100DF
:1002C00098E59093620088E38093630090936400C4
:1002D0002093650030936600089588E7809360005E
:1002E0008093610080936200809363008093640038
:1002F0008093650010926600089580E78093600007
:1003000090E29093610090E5909362009093630077
:10031000809364008093650080936600089590E761
:10032000909360009093610080E38093620080E589
:100330008093630080E680936400909365009093BF
:10034000660008951092670083E08FBD8AE18EBD3C
:100350001DBC1CBC87E08BBD8FEF8ABD88E189BFC7
:1003600078948FEF8ABB1BBA84E680936A0088EF8B
:1003700080936000809361008093620080936300AB
:10038000809364008093650080936600E4DE8AE0D9
:1003900090E08FDEF1DE8AE090E08BDEFEDE8AE028
:1003A00090E087DE0CDF8AE090E083DE1ADF8AE0EF
:1003B00090E07FDE26DF8AE090E07BDE33DF8AE0BC
:1003C00090E077DE43DF8AE090E073DE4FDF8AE083
:1003D00090E06FDE5CDF8AE090E06BDE6BDF8AE04E
:1003E00090E067DE7ADF8AE090E063DE86DF8AE015
:0A03F00090E05FDE94DFFFCFFFCF47
:00000001FF
