:1000000014C02EC02DC02CC02BC02AC029C028C0AF
:1000100027C026C025C024C023C022C021C020C0C4
:100020001FC01EC01DC01CC01BC011241FBECFE5B9
:10003000D2E0DEBFCDBF10E0A0E6B0E0E2E9F1E043
:1000400002C005900D92A036B107D9F710E0A0E6E6
:10005000B0E001C01D92AC36B107E1F77DD098C089
:10006000CFCF10926B0010926A0020E030E040E0A9
:1000700050E0000000000000000000000000000050
:10008000000000000000000000004F5F5F4F63E0D1
:100090004132560771F72F5F3F4F8217930738F7AA
:1000A00030936B0020936A00509368004093670080
:1000B000089510926B0010926A0020E030E000007A
:1000C0000000000000000000000000000000000030
:1000D00000002F5F3F4F8217930788F730936B0024
:1000E00020936A000895809160008BBB8091690025
:1000F0009927B7DF8091610081608BBB8091690097
:100100009927AFDF8091620082608BBB809169008C
:100110009927A7DF8091630083608BBB8091690082
:1001200099279FDF8091640084608BBB8091690078
:10013000992797DF8091650085608BBB809169006E
:1001400099278FDF8091660086608BBB8091690064
:10015000992787DF089508958FEF8ABB1BBA81E046
:10016000809369001092600080E18093610080E2DA
:100170008093620080E38093630080E48093640056
:1001800080E58093650080E680936600ACDFFECF5B
:02019000FFCF9F
:00000001FF
