:1000000014C02EC02DC02CC02BC02AC029C028C0AF
:1000100027C026C025C024C023C022C021C020C0C4
:100020001FC01EC01DC01CC01BC011241FBECFE5B9
:10003000D2E0DEBFCDBF10E0A0E6B0E0E2E9F0E044
:1000400002C005900D92A036B107D9F710E0A0E6E6
:10005000B0E001C01D92A036B107E1F702D018C090
:10006000CFCF15BA88EF84BB8FEF8BBB1ABA30E1C4
:1000700020E290E488E0CC9B35BBCD9B25BBCE9B9A
:1000800095BBCF99F8CF85BBCF9BFECF15BAF3CFE9
:02009000FFCFA0
:00000001FF
