:1000000014C02EC02DC02CC02BC02AC029C028C0AF
:1000100027C026C025C024C023C022C021C020C0C4
:100020001FC01EC0EAC01CC01BC011241FBECFE5EC
:10003000D2E0DEBFCDBF10E0A0E6B0E0EEEBF2E034
:1000400002C005900D92AE36B107D9F710E0AEE6CA
:10005000B0E001C01D92A137B107E1F7F3D02EC186
:10006000CFCF10926F0020916E0090E002C09F5F92
:100070002BE09817E0F320936E0090936F000895A3
:10008000AA9888ECEEDFAA9A88ECEBDFAA9808958C
:100090000F931F93082F85B3887F85BB802F807FA8
:1000A00085BBEEDF11270F70107084E0000F111F69
:1000B0008A95E1F705BBE4DF1F910F9108951F9327
:1000C000182F81E085BB15BA812F807F816085BBA9
:1000D000D7DF1295107F116015BBD2DF1F910895F5
:1000E000EF92FF920F931F93CF93DF937C0181E0F8
:1000F00085BB15BA00E010E011C0903111F480EC1E
:10010000C7DF8881807F816085BBBADF8881829567
:10011000807F816085BBB4DF0F5F1F4F902FE701A9
:10012000C00FD11D8881882341F7DF91CF911F91A6
:100130000F91FF90EF900895DF92EF92FF920F934F
:100140001F93D82E64E687D0282F94E6E92E8E9D43
:10015000700111248D2D99278E199F096AE070E096
:1001600086D08B01822F805DAADF802F805DA7DF84
:10017000DE188AE0089FC0011124D81A8D2D805DF9
:100180009EDF1F910F91FF90EF90DF9008958823DD
:1001900021F4862F80587CDF0895813019F4862F52
:1001A000805476DF089509C020E030E000002F5F22
:1001B0003F4F4CE02C3C3407C9F701972FEF8F3F9E
:1001C000920791F7089584E190E0EDDF85B3809385
:1001D00070008FEF84BB8FE090E0E5DF80E285BBAD
:1001E00081E056DF82E054DF80E852DF84E190E076
:1001F000DADF089581E04CDF08951F920F920FB669
:100200000F9211242F933F934F935F936F937F939C
:100210008F939F93AF93BF93EF93FF9380E690E00C
:100220005FDFFF91EF91BF91AF919F918F917F9190
:100230006F915F914F913F912F910F900FBE0F9053
:100240001F90189515BE80E28BBFBDDF84E690E05D
:1002500047DF7894FFCF991B79E004C0991F961768
:1002600008F0961B881F7A95C9F78095089597FB2B
:10027000092E07260AD077FD04D00CD006D0002026
:100280001AF4709561957F4F0895F6F790958195D2
:100290009F4F0895AA1BBB1B51E107C0AA1FBB1F9C
:1002A000A617B70710F0A61BB70B881F991F5A9502
:0E02B000A9F780959095BC01CD010895FFCF70
:0E02BE00206F6B0045787420494E54320000CA
:00000001FF
