:1000000014C023C022C021C020C01FC01EC01DC0FC
:100010001CC01BC01AC019C018C017C016C015C01C
:1000200014C013C012C011C010C011241FBECFE5F0
:10003000D2E0DEBFCDBF10E0A0E6B0E001C01D926F
:10004000AD36B107E1F7A1D1EAC1DACF86E886B9CA
:1000500008952091600090E002C09F5F2BE0981708
:10006000E0F320936000909361000895AA9888ECD3
:10007000F0DFAA9A88ECEDDFAA9808950F931F93FA
:10008000082F85B3887F85BB802F807F85BBEEDFFF
:1000900010E00F70107084E0000F111F8A95E1F7D7
:1000A00005BBE4DF1F910F9108951F93182F81E086
:1000B00085BB15BA812F807F816085BBD7DF129504
:1000C000107F116015BBD2DF1F910895EF92FF9250
:1000D0001F93CF93DF937C0181E085BB15BA10E0BD
:1000E00010C0103111F480ECC9DF8881807F8160FD
:1000F00085BBBCDF88818295807F816085BBB6DF50
:100100001F5FE701C10FD11D8881882351F7DF915F
:10011000CF911F91FF90EF900895EF92FF920F9370
:100120001F93182F64E648D1482F282F30E08CE920
:100130009FEF289F7001299FF00C389FF00C11242D
:10014000C701810F911D6AE070E042D1062F842F14
:10015000805DABDF802F805DA8DF105D1E0D86EF18
:100160009FEF089F002D1124802F810F9EDF1F918C
:100170000F91FF90EF900895882321F4862F8058E7
:100180007DDF0895813019F4862F805477DF08953C
:100190000AC020E030E000002F5F3F4F4CE02C3CD5
:1001A0003407C9F701970097A1F7089584E190E01B
:1001B000EFDF85B3809362008FEF84BB8FE090E028
:1001C000E7DF80E285BB81E059DF82E057DF80E82E
:1001D00055DF84E190E0DCDF089581E04FDF089592
:1001E000209167003091680040E050E016C00000A8
:1001F00000000000000000000000000000000000FF
:100200000000000000002F5F3F4F63E022323607FE
:1002100071F74F5F5F4F21E233E08417950718F0C5
:1002200020E030E0F0CF30936800209367005093D7
:100230006A0040936900089590E697B997B1982BAA
:1002400097B9369A81E090E0CBDF85B1089520E040
:1002500030E00CC0000000000000000000000000C2
:1002600000000000000000002F5F3F4F821793073F
:1002700088F730936A002093690008951BB888E1DD
:100280008AB986E880BD10BC87E689B984E690E02B
:10029000A7DF08955F9BFECF8CB1089520E030E08A
:1002A000000000000000000000000000000000004E
:1002B000000000002F5F3F4F8217930788F70895D3
:1002C000CF93DF93EC0107C08CB95E9BFECF2196E4
:1002D00088EE93E0E3DF88818823B1F7DF91CF9147
:1002E00008958CB95E9BFECF88EE93E0D7DF08952A
:1002F000EF92FF920F931F93182F64E65DD0482F63
:10030000282F30E08CE99FEF289F7001299FF00C87
:10031000389FF00C1124C701810F911D6AE070E035
:1003200057D0062F842F805DDCDF802F805DD9DFE2
:10033000105D1E0D86EF9FEF089F002D1124802F6A
:10034000810FCFDF1F910F91FF90EF9008958AE00A
:100350008ABB88E08BBB84E690E079DF82E06CDFCB
:100360008093660084E690E072DF089585E08ABBA2
:1003700081E08BBB84E690E06ADF83E05DDF809301
:10038000630084E690E063DF08950F931F9386E88F
:1003900086B974DF05E018E00ABB1BBB84E690E079
:1003A00056DFC999FECFD3DFE1DF80916600A0DF81
:1003B000809163009DDFF0CF991B79E004C0991F05
:1003C000961708F0961B881F7A95C9F780950895AF
:1003D00097FB092E07260AD077FD04D00CD006D053
:1003E00000201AF4709561957F4F0895F6F7909567
:1003F00081959F4F0895AA1BBB1B51E107C0AA1FFF
:10040000BB1FA617B70710F0A61BB70B881F991FB5
:100410005A95A9F780959095BC01CD010895F8945F
:02042000FFCF0C
:00000001FF
