:1000000014C02EC02DC02CC02BC02AC029C028C0AF
:1000100027C026C025C024C023C022C021C020C0C4
:100020001FC01EC01DC01CC01BC011241FBECFE5B9
:10003000D2E0DEBFCDBF11E0A0E6B0E0EAE5F7E038
:1000400002C005900D92A032B107D9F711E0A0E2ED
:10005000B1E001C01D92AB33B107E1F7F4D17BC32E
:10006000CFCF86E886B908952091200190E002C0A4
:100070009F5F2BE09817E0F32093200190932101DC
:100080000895AA9888ECF0DFAA9A88ECEDDFAA9888
:1000900008950F931F93082F85B3887F85BB802F0A
:1000A000807F85BBEEDF10E00F70107084E0000FE2
:1000B000111F8A95E1F705BBE4DF1F910F910895A9
:1000C0001F93182F81E085BB15BA812F807F816037
:1000D00085BBD7DF1295107F116015BBD2DF1F9152
:1000E0000895EF92FF921F93CF93DF937C0181E0FD
:1000F00085BB15BA10E010C0103111F480ECC9DFD7
:100100008881807F816085BBBCDF88818295807F0C
:10011000816085BBB6DF1F5FE701C10FD11D8881FC
:10012000882351F7DF91CF911F91FF90EF900895B1
:10013000EF92FF920F931F93182F64E6D9D2482FA6
:10014000282F30E08CE99FEF289F7001299FF00C49
:10015000389FF00C1124C701810F911D6AE070E0F7
:10016000D3D2062F842F805DABDF802F805DA8DF88
:10017000105D1E0D86EF9FEF089F002D1124802F2C
:10018000810F9EDF1F910F91FF90EF9008958823BC
:1001900021F4862F80587DDF0895813019F4862F51
:1001A000805477DF08950AC020E030E000002F5F20
:1001B0003F4F4CE02C3C3407C9F701970097A1F75B
:1001C000089584E190E0EFDF85B3809322018FEF03
:1001D00084BB8FE090E0E7DF80E285BB81E059DF00
:1001E00082E057DF80E855DF84E190E0DCDF0895AE
:1001F00081E04FDF089520912C0130912D0140E0E6
:1002000050E016C0000000000000000000000000E8
:100210000000000000000000000000002F5F3F4FC2
:1002200063E02232360771F74F5F5F4F21E233E020
:100230008417950718F020E030E0F0CF30932D01BF
:1002400020932C015093340140933301089590E69C
:1002500097B997B1982B97B9369A81E090E0CBDFA8
:1002600085B1089520E030E00CC0000000000000DF
:1002700000000000000000000000000000002F5FF0
:100280003F4F8217930788F730933401209333014F
:1002900008958AE08ABB88E08BBB84E690E0E2DFC9
:1002A00082E0D5DF80932A0184E690E0DBDF0895C9
:1002B00085E08ABB81E08BBB84E690E0D3DF83E0FE
:1002C000C6DF8093240184E690E0CCDF089585E0CA
:1002D0008ABB88E08BBB84E690E0C4DFC999FECF7F
:1002E000089589E08ABB88E08BBB84E690E0BADFA2
:1002F00082E0ADDF8823E1F784E690E0B3DF089584
:10030000A39AAB9A82E390E076DFAB98089580E001
:1003100060E03DDF80E690E0E4DE88EE93E06BDFB6
:1003200080E060E034DF8CE690E0DBDED0DFB1DF40
:10033000BFDF80912A018093360180912401809350
:100340002501CFDF80E060E022DF88E790E0C9DEB2
:10035000D7DF88EE93E04FDF80E060E018DF84E8CD
:1003600090E0BFDEB4DF95DFA3DF80912A018093A8
:1003700028018091240180933001B3DF80E060E0A8
:1003800006DF80E990E0ADDEBBDF88EE93E033DF8F
:1003900080E060E0FCDE8CE990E0A3DE98DF79DFAE
:1003A00087DF80912A018093380180912401809316
:1003B000290197DF80E060E0EADE88EA90E091DEE4
:1003C0009FDF88EE93E017DF80E060E0E0DE84EB03
:1003D00090E087DE7CDF5DDF6BDF80912A01809318
:1003E0002B0180912401809323017BDF80E060E07A
:1003F000CEDE80EC90E075DE83DF88EE93E0FBDEFE
:1004000080E060E0C4DE8CEC90E06BDE60DF41DF1A
:100410004FDF80912A0180932E01809124018093E7
:1004200032015FDF80E060E0B2DE88ED90E059DE0F
:1004300067DF88EE93E0DFDE80E060E0A8DE84EE38
:1004400090E04FDE089586E886B9BBDE8FE087BB7B
:100450005EDF3DDF1EDF2CDF80913601682F70E00C
:1004600080912A01A82FB0E080912501282F30E04B
:1004700080912401482F50E0E0E0F0E0C9010997A5
:100480004817590714F0E1E0F0E080E090E0275FC2
:100490003F4F2417350714F081E090E09F01282397
:1004A000392340E0CB0109968A179B070CF041E005
:1004B00080E069507040A617B7070CF081E0482330
:1004C000842F90E028233923232B41F00ADF18DF03
:1004D00080E060E05CDE80EF90E003DE8091280148
:1004E000682F70E080912A01A82FB0E08091300140
:1004F000282F30E080912401482F50E0E0E0F0E028
:10050000C90109974817590714F0E1E0F0E080E0CD
:1005100090E0275F3F4F2417350714F081E090E00B
:100520009F012823392340E0CB0109968A179B07B6
:100530000CF041E080E069507040A617B7070CF05E
:1005400081E04823842F90E028233923232B41F096
:10055000C8DED6DE80E060E01ADE8DEF90E0C1DD1F
:1005600080913801682F70E080912A01A82FB0E0B7
:1005700080912901282F30E080912401482F50E0FC
:10058000E0E0F0E0C90109974817590714F0E1E0ED
:10059000F0E080E090E0275F3F4F2417350714F02C
:1005A00081E090E09F012823392340E0CB010996A8
:1005B0008A179B070CF041E080E069507040A61755
:1005C000B7070CF081E04823842F90E028233923DB
:1005D000232B41F086DE94DE80E060E0D8DD8CE9FC
:1005E00090E07FDD80912B01682F70E080912A01DF
:1005F000A82FB0E080912301282F30E080912401C2
:10060000482F50E0E0E0F0E0C9010997481759078A
:1006100014F0E1E0F0E080E090E0275F3F4F241726
:10062000350714F081E090E09F012823392340E052
:10063000CB0109968A179B070CF041E080E06950D6
:100640007040A617B7070CF081E04823842F90E094
:1006500028233923232B41F044DE52DE80E060E082
:1006600096DD8AE091E03DDD80912E01682F70E0FB
:1006700080912A01A82FB0E080913201282F30E02C
:1006800080912401482F50E0E0E0F0E0C901099793
:100690004817590714F0E1E0F0E080E090E0275FB0
:1006A0003F4F2417350714F081E090E09F01282385
:1006B000392340E0CB0109968A179B070CF041E0F3
:1006C00080E069507040A617B7070CF081E048231E
:1006D000842F90E028233923232B09F4BACE01DE9E
:1006E0000FDE80E060E053DD85E191E0FADCB1CE21
:1006F000991B79E004C0991F961708F0961B881F74
:100700007A95C9F78095089597FB092E07260AD098
:1007100077FD04D00CD006D000201AF470956195B6
:100720007F4F0895F6F7909581959F4F0895AA1BE6
:10073000BB1B51E107C0AA1FBB1FA617B70710F0CC
:10074000A61BB70B881F991F5A95A9F780959095FE
:0A075000BC01CD010895F894FFCF1D
:10075A0063616C6962726174696F6E00666F727749
:10076A006172642020202000666F727761726420B3
:10077A00206F6B006261636B776F726420202000C8
:10078A006261636B77617264206F6B006C6566747B
:10079A0020202020202020006C6566742020202044
:1007AA00206F6B0072696768742020202020200067
:1007BA007269676874202020206F6B0073746F70F1
:1007CA00202020202020200073746F7020202020F9
:1007DA00206F6B0063616C2020202020206F6B004B
:1007EA00666F727761726420202020200062616344
:1007FA006B77617264202020200072696768742018
:10080A00202020200073746F7020202020202000D8
:00000001FF
