:1000000014C02EC02DC02CC02BC02AC029C028C0AF
:1000100027C026C025C024C023C022C021C020C0C4
:100020001FC01EC01DC01CC01BC011241FBECFE5B9
:10003000D2E0DEBFCDBF10E0A0E6B0E0EEE7F3E037
:1000400002C005900D92A837B107D9F710E0A8E7D4
:10005000B0E001C01D92A538B107E1F738D18DC1DC
:10006000CFCF86E886B908952091780090E002C04D
:100070009F5F2BE09817E0F320937800909379002E
:100080000895AA9888ECF0DFAA9A88ECEDDFAA9888
:1000900008950F931F93082F85B3887F85BB802F0A
:1000A000807F85BBEEDF10E00F70107084E0000FE2
:1000B000111F8A95E1F705BBE4DF1F910F910895A9
:1000C0001F93182F81E085BB15BA812F807F816037
:1000D00085BBD7DF1295107F116015BBD2DF1F9152
:1000E0000895EF92FF921F93CF93DF937C0181E0FD
:1000F00085BB15BA10E010C0103111F480ECC9DFD7
:100100008881807F816085BBBCDF88818295807F0C
:10011000816085BBB6DF1F5FE701C10FD11D8881FC
:10012000882351F7DF91CF911F91FF90EF900895B1
:10013000EF92FF920F931F93182F64E6EBD0482F96
:10014000282F30E08CE99FEF289F7001299FF00C49
:10015000389FF00C1124C701810F911D6AE070E0F7
:10016000E5D0062F842F805DABDF802F805DA8DF78
:10017000105D1E0D86EF9FEF089F002D1124802F2C
:10018000810F9EDF1F910F91FF90EF9008958823BC
:1001900021F4862F80587DDF0895813019F4862F51
:1001A000805477DF08950AC020E030E000002F5F20
:1001B0003F4F4CE02C3C3407C9F701970097A1F75B
:1001C000089584E190E0EFDF85B380937A008FEFAC
:1001D00084BB8FE090E0E7DF80E285BB81E059DF00
:1001E00082E057DF80E855DF84E190E0DCDF0895AE
:1001F00081E04FDF089520917F003091800040E042
:1002000050E016C0000000000000000000000000E8
:100210000000000000000000000000002F5F3F4FC2
:1002200063E02232360771F74F5F5F4F21E233E020
:100230008417950718F020E030E0F0CF309380006D
:1002400020937F005093820040938100089590E6B0
:1002500097B997B1982B97B9369A81E090E0CBDFA8
:1002600085B1089520E030E00CC0000000000000DF
:1002700000000000000000000000000000002F5FF0
:100280003F4F8217930788F73093820020938100B5
:1002900008958AE08ABB88E08BBB84E690E0E2DFC9
:1002A00082E0D5DF80937E0084E690E0DBDF089576
:1002B00085E08ABB81E08BBB84E690E0D3DF83E0FE
:1002C000C6DF80937B0084E690E0CCDF08950F9337
:1002D0001F9386E886B975DF80E690E002DF05E0CF
:1002E00018E00ABB1BBB84E690E0BCDFC999FECFD7
:1002F000D0DFDEDF81E061E04ADF8DE690E0F1DE15
:1003000080917E0015DF80E790E0EBDE80917B003E
:100310000FDFE7CF991B79E004C0991F961708F00B
:10032000961B881F7A95C9F78095089597FB092E2B
:1003300007260AD077FD04D00CD006D000201AF48E
:10034000709561957F4F0895F6F7909581959F4F31
:100350000895AA1BBB1B51E107C0AA1FBB1FA6170C
:10036000B70710F0A61BB70B881F991F5A95A9F75E
:0E03700080959095BC01CD010895F894FFCFC3
:10037E00546F7563682073637265656E00582D0047
:08038E0020202020592D000061
:00000001FF
