:1000000014C02EC02DC02CC02BC02AC029C028C0AF
:1000100027C026C025C024C023C022C021C020C0C4
:100020001FC01EC01DC01CC01BC011241FBECFE5B9
:10003000D2E0DEBFCDBF10E0A0E6B0E0E4E5F4E042
:1000400002C005900D92A037B107D9F710E0A0E7E4
:10005000B0E001C01D92A637B107E1F713D1F8C196
:10006000CFCF209172003091730040E050E016C075
:100070000000000000000000000000000000000080
:1000800000000000000000002F5F3F4F63E02232BD
:10009000360771F74F5F5F4F21E233E08417950712
:1000A00018F020E030E0F0CF30937300209372001E
:1000B0005093750040937400089520E030E00CC028
:1000C0000000000000000000000000000000000030
:1000D000000000002F5F3F4F8217930788F730938F
:1000E00075002093740008952091700090E002C084
:1000F0009F5F2BE09817E0F32093700090937100BE
:100100000895AA9888ECF0DFAA9A88ECEDDFAA9807
:1001100008950F931F93082F85B3887F85BB802F89
:10012000807F85BBEEDF10E00F70107084E0000F61
:10013000111F8A95E1F705BBE4DF1F910F91089528
:100140001F93182F81E085BB15BA812F807F8160B6
:1001500085BBD7DF1295107F116015BBD2DF1F91D1
:100160000895EF92FF921F93CF93DF937C0181E07C
:1001700085BB15BA10E010C0103111F480ECC9DF56
:100180008881807F816085BBBCDF88818295807F8C
:10019000816085BBB6DF1F5FE701C10FD11D88817C
:1001A000882351F7DF91CF911F91FF90EF90089531
:1001B000EF92FF920F931F93182F64E616D1482FEA
:1001C000282F30E08CE99FEF289F7001299FF00CC9
:1001D000389FF00C1124C701810F911D6AE070E077
:1001E00010D1062F842F805DABDF802F805DA8DFCC
:1001F000105D1E0D86EF9FEF089F002D1124802FAC
:10020000810F9EDF1F910F91FF90EF90089588233B
:1002100021F4862F80587DDF0895813019F4862FD0
:10022000805477DF08950AC020E030E000002F5F9F
:100230003F4F4CE02C3C3407C9F701970097A1F7DA
:10024000089584E190E0EFDF15BA8FEF84BB8FE073
:1002500090E0E9DF80E285BB81E05BDF8AE090E04F
:10026000E2DF82E056DF8AE090E0DDDF80E851DF08
:1002700084E190E0D8DF089581E04BDF8AE090E0F0
:10028000D2DF08954F925F926F927F928F929F92EA
:10029000AF92BF92CF92DF92EF92FF920F931F9394
:1002A000DF93CF93CDB7DEB72E970FB6F894DEBFAE
:1002B0000FBECDBFC6DF80E690E053DF80EC29DFC4
:1002C00087E690E04EDF88EE93E0CBDED5DF84E674
:1002D00090E0C7DE17BA8FEF81BB12BA4E010894C7
:1002E000811C911C442443945FE0A52EB12CAC0EDC
:1002F000BD1E49E0C42ED12CCC0EDD1E30EA532E9B
:1003000020E5622E90E4792E00E1B19BFECF84E6D9
:1003100090E0D3DE7401B19B03C0F701408202C0BC
:10032000F701108281EF96E0C8DE0894E11CF11C11
:10033000EA14FB0481F780E060E069DF8981805D79
:10034000FFDE8A81805DFCDE8B81805DF9DE8C8141
:10035000805DF6DE8D81805DF3DE8E81805DF0DE76
:100360008F81805DEDDE8885805DEADE81E060E082
:100370004EDF8985805DE4DE8A85805DE1DE8B85E8
:10038000805DDEDE8C85805DDBDE8D85805DD8DE88
:100390008E85805DD5DEF60110E0808180FD1160E4
:1003A000110F3196EE15FF05C1F781E069E02FDFEF
:1003B0001695812FFDDE1C3181F01D3130F4123194
:1003C00071F0143109F0A1CF0CC01E3121F01632AA
:1003D00009F09BCF08C062BA98CF52BA96CF72BAD2
:1003E00094CF02BB92CF12BA90CF991B79E004C090
:1003F000991F961708F0961B881F7A95C9F7809564
:10040000089597FB092E07260AD077FD04D00CD05B
:1004100006D000201AF4709561957F4F0895F6F785
:10042000909581959F4F0895AA1BBB1B51E107C072
:10043000AA1FBB1FA617B70710F0A61BB70B881F74
:10044000991F5A95A9F780959095BC01CD01089503
:04045000F894FFCF4E
:10045400202052432035006465636F646572000098
:00000001FF
