:1000000014C023C022C021C020C01FC01EC01DC0FC
:100010001CC01BC01AC019C018C017C016C015C01C
:1000200014C013C012C011C010C011241FBECFE5F0
:10003000D2E0DEBFCDBF10E0A0E6B0E001C01D926F
:10004000A436B107E1F7ABD006C1DACF209160004A
:100050003091610040E050E016C000000000000058
:100060000000000000000000000000000000000090
:1000700000002F5F3F4F63E02232360771F74F5F7A
:100080005F4F21E233E08417950718F020E030E05D
:10009000F0CF309361002093600050936300409351
:1000A0006200089520E030E00CC000000000000075
:1000B00000000000000000000000000000002F5FB2
:1000C0003F4F8217930788F73093630020936200B5
:1000D00008951BB888E18AB986E880BD10BC87E620
:1000E00089B908955F9BFECF8CB1089520E030E080
:1000F0000000000000000000000000000000000000
:10010000000000002F5F3F4F8217930788F7089584
:10011000CF93DF93EC0107C08CB95E9BFECF219695
:1001200088EE93E0E3DF88818823B1F7DF91CF91F8
:1001300008958CB95E9BFECF88EE93E0D7DF0895DB
:10014000EF92FF920F931F93182F64E651D0482F20
:10015000282F30E08CE99FEF289F7001299FF00C39
:10016000389FF00C1124C701810F911D6AE070E0E7
:100170004BD0062F842F805DDCDF802F805DD9DFA0
:10018000105D1E0D86EF9FEF089F002D1124802F1C
:10019000810FCFDF1F910F91FF90EF9008951BB853
:1001A00080E18AB986E880BD10BC87E689B980EF16
:1001B00081BB40E130E420EA90E55F9BFECF8CB14B
:1001C0008C3481F08D3428F4823451F08634A9F7D0
:1001D00005C0823549F0833581F708C092BBEDCF69
:1001E00022BBEBCF42BBE9CF32BBE7CF12BAE5CFA0
:1001F000991B79E004C0991F961708F0961B881F79
:100200007A95C9F78095089597FB092E07260AD09D
:1002100077FD04D00CD006D000201AF470956195BB
:100220007F4F0895F6F7909581959F4F0895AA1BEB
:10023000BB1B51E107C0AA1FBB1FA617B70710F0D1
:10024000A61BB70B881F991F5A95A9F78095909503
:0A025000BC01CD010895F894FFCF22
:00000001FF
