:1000000014C02EC02DC02CC02BC02AC029C028C0AF
:1000100027C083C025C024C023C022C021C020C067
:100020001FC01EC01DC01CC01BC011241FBECFE5B9
:10003000D2E0DEBFCDBF10E0A0E6B0E0E4E1F2E048
:1000400002C005900D92A036B107D9F710E0A0E6E6
:10005000B0E001C01D92A436B107E1F7B2D0D9C01B
:10006000CFCF109263001092620020E030E040E0B9
:1000700050E0000000000000000000000000000050
:10008000000000000000000000004F5F5F4F63E0D1
:100090004132560771F72F5F3F4F8217930738F7AA
:1000A000309363002093620050936100409360009E
:1000B0000895109263001092620020E030E000008A
:1000C0000000000000000000000000000000000030
:1000D00000002F5F3F4F8217930788F7309363002C
:1000E000209362000895109263001092620020E055
:1000F00030E00000000000000000000000000000F0
:100100000000000000002F5F3F4F8217930788F721
:10011000309363002093620008951F920F920FB6F0
:100120000F9211248F939F938EE282BF88B391E048
:10013000892788BB9F918F910F900FBE0F901F90C2
:100140001895FF920F931F93082FFF2419EE17FFA6
:1001500009C013BE89E793E0C6DF81E083BF80ED6D
:1001600092E008C081E083BF80ED92E0BCDF13BE67
:1001700089E793E0B8DFF39488E0F81611F0110FE7
:10018000E6CF10E005FF09C013BE89E793E0ABDFBF
:1001900081E083BF80ED92E008C081E083BF80ED05
:1001A00092E0A1DF13BE89E793E09DDF1F5F163069
:1001B00011F0000FE7CF13BE18BA1F910F91FF90F7
:1001C00008958EE282BF13BE81E089BF87BB18BA53
:1001D00080EF8BBB1ABA7894CC9905C081E0B1DF6F
:1001E00081E790E03EDFCD9905C082E0AADF81E79C
:1001F00090E037DFCE9905C083E0A3DF81E790E090
:1002000030DFCF99E9CF84E09CDF81E790E029DF00
:04021000E3CFFFCF6A
:00000001FF
